:020000040000FA
:060000001FEF05F01200E5
:0600080016EF00F01200EB
:0600180065EF00F012008C
:020020000707D0
:02002A000000D4
:04002C00DACFE4FF44
:10003000E2CFDAFFE9CFE4FFEACFE4FFF6CFE4FF57
:10004000F7CFE4FFF5CFE4FFF3CFE4FFF4CFE4FF15
:10005000FACFE4FF00EE09F0020EE80403E3EECF6E
:10006000E4FFFBD700EE00F0090EE80403E3EECF57
:10007000E4FFFBD7E6529EA602D0A5D802D041EFFE
:1000800010F0E55200EE08F0090EE80403E3E5CFB6
:10009000EDFFFBD700EE0AF0020EE80403E3E5CF24
:1000A000EDFFFBD7E5CFFAFFE5CFF4FFE5CFF3FF98
:1000B000E5CFF5FFE5CFF7FFE5CFF6FFE5CFEAFFA8
:1000C000E5CFE9FFE5CFDAFF110044EF10F01200B1
:1000D000D9CFE6FFE1CFD9FFE652E66A030EE66E1E
:1000E000050EE66EA8EC04F0E552E552E552938861
:1000F000D388D38AD38C68DA04018F6F04018F51BF
:1001000023E0000EF66E210EF76E0900F5CF00F029
:100110000900F5CF01F00800F5CF02F0020EE66EFF
:10012000040EE66E03C4E6FF04C4E6FF05C4E6FF62
:1001300006D002C0FBFF01C0FAFF0050F96EF9DFE4
:10014000036E050EE15E0350C950DF6EC96AD08EA2
:10015000F28EF29AF298F2969D869F860401906B39
:10016000040190512AE004018F5127E00401928F8D
:10017000090EF66E210EF76E0900F5CF00F00900AA
:10018000F5CF01F00800F5CF02F0020EE66E040E86
:10019000E66E03C4E6FF04C4E6FF05C4E6FF06D02E
:1001A00002C0FBFF01C0FAFF0050F96EF9DF036ED9
:1001B000050EE15E03500401906BD2D7E552E55283
:1001C000E7CFD9FF1200D9CFE6FFE1CFD9FF030E69
:1001D000E126948E9E96C9CF91F4030E0401915DA1
:1001E00007E104018F5103E00401010E906F89D1F2
:1001F00081B887D1949E040104019151800B36E1AE
:10020000040104019151400B31E104018F512EE0B2
:10021000040191512BE004019151030DF3CFF6FF3E
:10022000F4CFF7FF000EF626210EF7220900F5CFD6
:1002300000F00900F5CF01F00800F5CF02F0020E42
:10024000E66E040EE66E03C4E6FF04C4E6FF05C4D2
:10025000E6FF06D002C0FBFF01C0FAFF0050F96EB6
:10026000F9DF036E050EE15E03504BD181A8FED786
:100270008188939804019151C00A01E1AAD0400AF3
:100280003BE0C00A01E03CD104018F512BE0030E9A
:10029000F66E210EF76E0900F5CF00F00900F5CFDC
:1002A00001F00800F5CF02F0020EE66E040EE66ED5
:1002B00003C4E6FF04C4E6FF05C4E6FF06D002C09F
:1002C000FBFF01C0FAFF0050F96EF9DF036E050E67
:1002D000E15E03500401926F040192BF02D0040159
:1002E000906B03D004013D0E926F819892C4E6FF9B
:1002F000DAEC04F0E55204D18198F8EC04F0040142
:10030000056F8188F8EC04F00401046F8198F8EC23
:1003100004F00401036F8188F8EC04F00401026F1B
:10032000040105517F0827E2800E04010317010E26
:10033000DB6A04010251F36E010EDBCFF4FFF350D0
:10034000F45C18E2010EDB5004010325E66EA2DA2C
:10035000E552E66E010EDBCFE9FFEA6AE9BEEA6824
:10036000070EE926040EEA22E552E750EF6E010E71
:10037000DB2ADFD70FD004010251006E016A01347D
:1003800004E200508008000E015403E20401800ED4
:10039000026FCED9010EDB6A04010251F36E010E29
:1003A000DBCFF4FFF350F45C13E28178010EDBCF76
:1003B000E9FFEA6AE9BEEA68070EE926040EEA22C6
:1003C000EF50E66EDAEC04F0E552010EDB2AE4D7DA
:1003D00097D08198F8EC04F00401056F8188F8EC5F
:1003E00004F00401046F8198F8EC04F00401036F39
:1003F000010EDB6A010EDBCF00F0400EE76E001845
:10040000E8AE02D0E73402D0E750005C14E2817815
:10041000F8EC04F0E66E010EDBCFE9FFEA6AE9BE14
:10042000EA68070EE926040EEA22E552E750EF6E6D
:10043000010EDB2ADFD7040105517F0837E2C00E29
:1004400004010317010EDB6A010EDBCF00F0400E42
:10045000E76E0018E8AE02D0E73402D0E750005C47
:1004600017E2010EDBCFE9FFEA6AE9BEEA68070E90
:10047000E926040EEA22EF50E66E010EDB5004017D
:100480000325E66EF0D9E552E552010EDB2ADCD7F2
:10049000400EE66EE66A03C4E6FF70D8E552E55208
:1004A000E552E76E020EE7CFDBFF22D0000E04011B
:1004B000035D200E0459000E0559000E065918E37D
:1004C0000401010E026FA2D90401400E026F62D92D
:1004D000400EE66EE66A03C4E6FF04C4E6FF1ED8DB
:1004E000E552E552E552E552E76E020EE7CFDBFF3B
:1004F0008178020EDBCFE6FFDAEC04F0E55200D0A3
:100500009388C950DF6EC96A030EE15C02E2E16ABA
:10051000E552E16EE552E7CFD9FF1200D9CFE6FFF1
:10052000E1CFD9FFE652DF6AD950FB0FE96EFF0E2B
:10053000DA20EA6EEE50ED1018E0FD0EDBCFF6FF8C
:10054000FE0EDBCFF7FF0800F550DF26FD0EDBCFF8
:10055000F6FFDB2AFE0EDBCFF7FF01E3DB2AFB0E03
:10056000DB06FC0E01E2DB06DFD7DF1EDF2ADF50F1
:1005700000D0E552E552E7CFD9FF1200D9CFE6FF10
:10058000E1CFD9FFE652DF6AD950FC0FE96EFF0ECA
:10059000DA20EA6EEE50ED100EE0FE0EDBCFE6FF45
:1005A00079D9E552DF26FE0EDB2AFC0EDB06FD0EB6
:1005B00001E2DB06E9D7DF1EDF2ADF5000D0E5527B
:1005C000E552E7CFD9FF1200D9CFE6FFE1CFD9FF3F
:1005D000E6520401036B210E046F056B066B0401E8
:1005E000006B00C400F0016A00BE0168300E005CC0
:1005F000000E015865E200C400F0016A026A00AE14
:1006000002D001680268040103510024F36E040162
:1006100004510120F46E040105510220F86EF4CF5C
:10062000F7FFF3CFF6FF0800F550FF0845E100C4DF
:1006300003F0046A056A03AE02D004680568040189
:1006400003510324F36E040104510420F46E0401E9
:1006500005510520F86EF4CFF7FFF3CFF6FFF62A29
:10066000000EF722000EF8220800F550FF0824E1E2
:1006700000C406F0076A086A06AE02D00768086878
:10068000040103510624F36E040104510720F46EA3
:10069000040105510820F86EF4CFF7FFF3CFF6FF01
:1006A000020EF626000EF722000EF8220800F55082
:1006B000FF0802E1000E31D0030E0401002791D79C
:1006C0000401010E036F200E046F056B066B03C45B
:1006D000F6FF04C4F7FF05C4F8FF0800F550DF6E0D
:1006E000DFCF00F0080EE76E0018E8AE02D0E73466
:1006F00002D0E750005C0DE3DFCF01F00D0EE76E96
:100700000118E8AE02D0013403D0E750D88001547C
:1007100002E2000E02D0010E00D0E552E552E7CF12
:10072000D9FF1200550EA76EAA0EA76EA682120060
:100730000401006B040102510401005D29E200C4C0
:1007400000F0016A026A00AE02D00168026804018A
:1007500003510024F36E040104510120F46E0401DE
:1007600005510220F86EF4CFF7FFF3CFF6FF080033
:10077000F5CF01F400C4E9FFEA6AE9BEEA68070EB2
:10078000E926040EEA2201C4EFFF0401002BD2D7B0
:10079000F86A1200E00E04010317840EA66E04012D
:1007A000006B040102510401005D2FE200C4E9FF67
:1007B000EA6AE9BEEA68070EE926040EEA22EFCFEC
:1007C00003F000C400F0016A026A00AE02D00168C2
:1007D0000268040103510024F36E04010451012056
:1007E000F46E040105510220F86EF4CFF7FFF3CF49
:1007F000F6FF03C0F5FF0C000F0E040100150F08F3
:1008000001E190DF0401002BCCD71200940EA66EFC
:100810000401006B040102510401005D22E200C4E6
:1008200000F0016A00BE0168060ED890003601365D
:10083000E804FBE1026A01BE0268040103510024DE
:10084000F36E040104510120F46E040105510220ED
:10085000F86EF4CFF7FFF3CFF6FF64DF0401002B4F
:10086000D9D7F86A1200D9CFE6FFE1CFD9FFFE0E43
:10087000DB50A96EFD0EDB50A86E040EA66E550E61
:10088000A76EAA0EA76EA682A6B2FED7E552E7CF44
:10089000D9FF1200D9CFE6FFE1CFD9FFA66AFE0E3D
:1008A000DB50A96EA680A85000D0E552E7CFD9FF53
:0208B000120034
:0E08B2002A0EF66E000EF76E000EF86E0401B0
:1008C0000900F550986F0900F550996F03E198679A
:1008D00001D03DD00900F550936F0900F550946F99
:1008E0000900F550956F09000900F550E96E0900FF
:1008F000F550EA6E090009000900F550966F0900ED
:10090000F550976F09000900F6CF9AF4F7CF9BF4E2
:10091000F8CF9CF493C4F6FF94C4F7FF95C4F8FF96
:100920000401965302E1975307E00900F550EE6E7B
:100930009607F8E29707F9D79AC4F6FF9BC4F7FF2A
:100940009CC4F8FF04019807000E995BBFD7120002
:10095000D9CFE6FFDACFE6FFE1CFD9FFE2CFDAFF6A
:100960003F0EC716C66AFD0EDB50C612FB0EDB50EB
:10097000C712FC0EDB50030A09E0010A04E0020A78
:1009800006E1C78C04D0C78CC68801D0C688FD0E8E
:10099000DB50050A03E0010A03E1928A938201D049
:1009A00093929380949EC68AE552E5CFDAFFE7CF13
:0409B000D9FF120059
:0C09B400D9CFE6FFDACFE6FFE1CFD9FF94
:1009C000E2CFDAFFE652C950DF6E9E96C69EFD0E5C
:1009D000DB50C96EC6AE02D0FF0E03D09EA6FED776
:1009E000000EE552E552E5CFDAFFE7CFD9FF12005E
:1009F000D9CFE6FFDACFE6FFE1CFD9FFE2CFDAFFCA
:100A0000E652C950DF6E9E96C96A9EA6FED7C950AF
:0E0A1000E552E552E5CFDAFFE7CFD9FF12003D
:020A1E00000EC8
:100A2000F36E00EE00F0040E01D81200EA6002D06E
:0E0A3000EE6AFCD7F350E9601200EE6AFCD7C4
:020A3E0016EEB2
:100A400000F026EE00F0F86A0A9C59EC04F02DEC58
:0A0A500005F068EC00F0FBD712007F
:020A5A00120088
:06200000FFFF00000000DC
:1021000000000000000000000000000000000000CF
:1021100000000000000000000000000000000000BF
:1021200000000000000000000000000000000000AF
:020000040030CA
:0100000021DE
:0100010046B8
:010002003EBF
:010003001EDE
:010005008179
:010006008178
:010008000FE8
:01000900C036
:01000A000FE6
:01000B00E014
:01000C000FE4
:01000D0040B2
:00000001FF
